{
  "contractName": "charity",
  "abi": [
    {
      "constant": true,
      "inputs": [
        {
          "name": "",
          "type": "uint256"
        }
      ],
      "name": "charitys",
      "outputs": [
        {
          "name": "name",
          "type": "string"
        },
        {
          "name": "description",
          "type": "string"
        },
        {
          "name": "bankAccount",
          "type": "string"
        },
        {
          "name": "bankName",
          "type": "string"
        },
        {
          "name": "id",
          "type": "uint256"
        },
        {
          "name": "hash",
          "type": "bytes32"
        },
        {
          "name": "address_of_charity",
          "type": "string"
        },
        {
          "name": "ether_coins",
          "type": "string"
        }
      ],
      "payable": false,
      "stateMutability": "view",
      "type": "function",
      "signature": "0x6610f9cf"
    },
    {
      "constant": true,
      "inputs": [
        {
          "name": "",
          "type": "uint256"
        }
      ],
      "name": "org",
      "outputs": [
        {
          "name": "name",
          "type": "string"
        },
        {
          "name": "bankAccount",
          "type": "string"
        },
        {
          "name": "bankName",
          "type": "string"
        },
        {
          "name": "id",
          "type": "uint256"
        },
        {
          "name": "hash",
          "type": "bytes32"
        },
        {
          "name": "address_of_organisation",
          "type": "string"
        },
        {
          "name": "ether_coins",
          "type": "string"
        }
      ],
      "payable": false,
      "stateMutability": "view",
      "type": "function",
      "signature": "0x69e6601c"
    },
    {
      "constant": true,
      "inputs": [],
      "name": "charity_count",
      "outputs": [
        {
          "name": "",
          "type": "uint256"
        }
      ],
      "payable": false,
      "stateMutability": "view",
      "type": "function",
      "signature": "0xacecc149"
    },
    {
      "constant": true,
      "inputs": [
        {
          "name": "",
          "type": "uint256"
        }
      ],
      "name": "transaction_dict",
      "outputs": [
        {
          "name": "address_of_charity",
          "type": "string"
        },
        {
          "name": "address_of_organisation",
          "type": "string"
        },
        {
          "name": "amount_sent",
          "type": "string"
        },
        {
          "name": "id",
          "type": "uint256"
        }
      ],
      "payable": false,
      "stateMutability": "view",
      "type": "function",
      "signature": "0xd5e2c5e4"
    },
    {
      "constant": true,
      "inputs": [],
      "name": "org_count",
      "outputs": [
        {
          "name": "",
          "type": "uint256"
        }
      ],
      "payable": false,
      "stateMutability": "view",
      "type": "function",
      "signature": "0xf3e2236f"
    },
    {
      "constant": true,
      "inputs": [],
      "name": "transaction_count",
      "outputs": [
        {
          "name": "",
          "type": "uint256"
        }
      ],
      "payable": false,
      "stateMutability": "view",
      "type": "function",
      "signature": "0xf7ff50e2"
    },
    {
      "inputs": [],
      "payable": false,
      "stateMutability": "nonpayable",
      "type": "constructor",
      "signature": "constructor"
    },
    {
      "constant": false,
      "inputs": [
        {
          "name": "_name",
          "type": "string"
        },
        {
          "name": "_description",
          "type": "string"
        },
        {
          "name": "_bankacc",
          "type": "string"
        },
        {
          "name": "_bankname",
          "type": "string"
        },
        {
          "name": "_address",
          "type": "string"
        },
        {
          "name": "_ether_coins",
          "type": "string"
        }
      ],
      "name": "createCharity",
      "outputs": [
        {
          "name": "",
          "type": "uint256"
        }
      ],
      "payable": false,
      "stateMutability": "nonpayable",
      "type": "function",
      "signature": "0xb7483a1b"
    },
    {
      "constant": false,
      "inputs": [
        {
          "name": "_name",
          "type": "string"
        },
        {
          "name": "_bankacc",
          "type": "string"
        },
        {
          "name": "_bankname",
          "type": "string"
        },
        {
          "name": "_address",
          "type": "string"
        },
        {
          "name": "_ether_coins",
          "type": "string"
        }
      ],
      "name": "createOrganisation",
      "outputs": [
        {
          "name": "",
          "type": "uint256"
        }
      ],
      "payable": false,
      "stateMutability": "nonpayable",
      "type": "function",
      "signature": "0xcc11e169"
    },
    {
      "constant": false,
      "inputs": [
        {
          "name": "add_of_charity",
          "type": "string"
        },
        {
          "name": "add_of_org",
          "type": "string"
        },
        {
          "name": "amount",
          "type": "string"
        }
      ],
      "name": "createTransaction",
      "outputs": [],
      "payable": false,
      "stateMutability": "nonpayable",
      "type": "function",
      "signature": "0x17db127a"
    }
  ],
  "bytecode": "0x608060405260008055600060015560006004553480156200001f57600080fd5b50620001e06040805190810160405280600d81526020017f616e616e645f6368617269747900000000000000000000000000000000000000815250608060405190810160405280605081526020017f77656c636f6d6520746f20616e616e64277320636861726974792c207468697381526020017f20697320612064656661756c742063686172697479206173204920637265617481526020017f65642074686973207765622070616765000000000000000000000000000000008152506040805190810160405280600781526020017f62616e6b616363000000000000000000000000000000000000000000000000008152506040805190810160405280600881526020017f62616e6b6e616d65000000000000000000000000000000000000000000000000815250606060405190810160405280602a815260200160008051602062002bd283398151915281526020017f34344538666137333363000000000000000000000000000000000000000000008152506040805190810160405280600481526020017f303030300000000000000000000000000000000000000000000000000000000081525062000310640100000000026401000000009004565b50604080518082018252601281527f616e616e645f6f7267616e69736174696f6e000000000000000000000000000060208083019190915282518084018452600c81527f62616e6b206163636f756e7400000000000000000000000000000000000000008183015283518085018552600981527f62616e6b206e616d650000000000000000000000000000000000000000000000818401528451606081018652602a815260008051602062002bd2833981519152818501527f3434453866613733336300000000000000000000000000000000000000000000818701528551808701909652600486527f303030300000000000000000000000000000000000000000000000000000000093860193909352620003099491929091640100000000620007bd810204565b5062000c40565b60008054600101815582518451865188518a516040805191909201909201909201909201808352601f19601f820116830160200190915288918891889188918891606091801562000368576020820181803883390190505b509050806000805b8851811015620004085788818151811015156200038957fe5b9060200101517f010000000000000000000000000000000000000000000000000000000000000090047f0100000000000000000000000000000000000000000000000000000000000000028383815181101515620003e357fe5b906020010190600160f860020a031916908160001a9053506001918201910162000370565b5060005b8751811015620004a45787818151811015156200042557fe5b9060200101517f010000000000000000000000000000000000000000000000000000000000000090047f01000000000000000000000000000000000000000000000000000000000000000283838151811015156200047f57fe5b906020010190600160f860020a031916908160001a905350600191820191016200040c565b5060005b865181101562000540578681815181101515620004c157fe5b9060200101517f010000000000000000000000000000000000000000000000000000000000000090047f01000000000000000000000000000000000000000000000000000000000000000283838151811015156200051b57fe5b906020010190600160f860020a031916908160001a90535060019182019101620004a8565b5060005b8551811015620005dc5785818151811015156200055d57fe5b9060200101517f010000000000000000000000000000000000000000000000000000000000000090047f0100000000000000000000000000000000000000000000000000000000000000028383815181101515620005b757fe5b906020010190600160f860020a031916908160001a9053506001918201910162000544565b5060005b845181101562000678578481815181101515620005f957fe5b9060200101517f010000000000000000000000000000000000000000000000000000000000000090047f01000000000000000000000000000000000000000000000000000000000000000283838151811015156200065357fe5b906020010190600160f860020a031916908160001a90535060019182019101620005e0565b506000828051906020012090508f60026000805481526020019081526020016000206000019080519060200190620006b292919062000b9b565b508e60026000805481526020019081526020016000206001019080519060200190620006e092919062000b9b565b508d600260008054815260200190815260200160002060020190805190602001906200070e92919062000b9b565b508c600260008054815260200190815260200160002060030190805190602001906200073c92919062000b9b565b5060008054808252600260209081526040808420600481019390935560059092018490558254835291208d516200077c926006909201918f019062000b9b565b506000805481526002602090815260409091208c51620007a5926007909201918e019062000b9b565b50506000549f9e505050505050505050505050505050565b600180548101905581518351855187516040805191909201909201909201808252601f19601f8201168201602001909252600091879187918791879160609190801562000811576020820181803883390190505b509050806000805b8751811015620008b15787818151811015156200083257fe5b9060200101517f010000000000000000000000000000000000000000000000000000000000000090047f01000000000000000000000000000000000000000000000000000000000000000283838151811015156200088c57fe5b906020010190600160f860020a031916908160001a9053506001918201910162000819565b5060005b86518110156200094d578681815181101515620008ce57fe5b9060200101517f010000000000000000000000000000000000000000000000000000000000000090047f01000000000000000000000000000000000000000000000000000000000000000283838151811015156200092857fe5b906020010190600160f860020a031916908160001a90535060019182019101620008b5565b5060005b8551811015620009e95785818151811015156200096a57fe5b9060200101517f010000000000000000000000000000000000000000000000000000000000000090047f0100000000000000000000000000000000000000000000000000000000000000028383815181101515620009c457fe5b906020010190600160f860020a031916908160001a9053506001918201910162000951565b5060005b845181101562000a8557848181518110151562000a0657fe5b9060200101517f010000000000000000000000000000000000000000000000000000000000000090047f010000000000000000000000000000000000000000000000000000000000000002838381518110151562000a6057fe5b906020010190600160f860020a031916908160001a90535060019182019101620009ed565b506000828051906020012090508d600360006001548152602001908152602001600020600001908051906020019062000ac092919062000b9b565b508c600360006001548152602001908152602001600020600101908051906020019062000aef92919062000b9b565b5060015460009081526003602090815260409091208d5162000b1a926002909201918f019062000b9b565b5060018054600081815260036020818152604080842092830194909455600490910185905592548152208c5162000b5a926005909201918e019062000b9b565b5060015460009081526003602090815260409091208b5162000b85926006909201918d019062000b9b565b50506001549d9c50505050505050505050505050565b828054600181600116156101000203166002900490600052602060002090601f016020900481019282601f1062000bde57805160ff191683800117855562000c0e565b8280016001018555821562000c0e579182015b8281111562000c0e57825182559160200191906001019062000bf1565b5062000c1c92915062000c20565b5090565b62000c3d91905b8082111562000c1c576000815560010162000c27565b90565b611f828062000c506000396000f3fe6080604052600436106100985763ffffffff7c010000000000000000000000000000000000000000000000000000000060003504166317db127a811461009d5780636610f9cf1461026057806369e6601c14610511578063acecc14914610759578063b7483a1b14610780578063cc11e16914610ad6578063d5e2c5e414610da5578063f3e2236f14610f1a578063f7ff50e214610f2f575b600080fd5b3480156100a957600080fd5b5061025e600480360360608110156100c057600080fd5b8101906020810181356401000000008111156100db57600080fd5b8201836020820111156100ed57600080fd5b8035906020019184600183028401116401000000008311171561010f57600080fd5b91908080601f016020809104026020016040519081016040528093929190818152602001838380828437600092019190915250929594936020810193503591505064010000000081111561016257600080fd5b82018360208201111561017457600080fd5b8035906020019184600183028401116401000000008311171561019657600080fd5b91908080601f01602080910402602001604051908101604052809392919081815260200183838082843760009201919091525092959493602081019350359150506401000000008111156101e957600080fd5b8201836020820111156101fb57600080fd5b8035906020019184600183028401116401000000008311171561021d57600080fd5b91908080601f016020809104026020016040519081016040528093929190818152602001838380828437600092019190915250929550610f44945050505050565b005b34801561026c57600080fd5b5061028a6004803603602081101561028357600080fd5b5035610fdb565b6040518080602001806020018060200180602001898152602001888152602001806020018060200187810387528f818151815260200191508051906020019080838360005b838110156102e75781810151838201526020016102cf565b50505050905090810190601f1680156103145780820380516001836020036101000a031916815260200191505b5087810386528e818151815260200191508051906020019080838360005b8381101561034a578181015183820152602001610332565b50505050905090810190601f1680156103775780820380516001836020036101000a031916815260200191505b5087810385528d5181528d516020918201918f019080838360005b838110156103aa578181015183820152602001610392565b50505050905090810190601f1680156103d75780820380516001836020036101000a031916815260200191505b5087810384528c5181528c516020918201918e019080838360005b8381101561040a5781810151838201526020016103f2565b50505050905090810190601f1680156104375780820380516001836020036101000a031916815260200191505b5087810383528951815289516020918201918b019080838360005b8381101561046a578181015183820152602001610452565b50505050905090810190601f1680156104975780820380516001836020036101000a031916815260200191505b5087810382528851815288516020918201918a019080838360005b838110156104ca5781810151838201526020016104b2565b50505050905090810190601f1680156104f75780820380516001836020036101000a031916815260200191505b509e50505050505050505050505050505060405180910390f35b34801561051d57600080fd5b5061053b6004803603602081101561053457600080fd5b5035611370565b60405180806020018060200180602001888152602001878152602001806020018060200186810386528d818151815260200191508051906020019080838360005b8381101561059457818101518382015260200161057c565b50505050905090810190601f1680156105c15780820380516001836020036101000a031916815260200191505b5086810385528c5181528c516020918201918e019080838360005b838110156105f45781810151838201526020016105dc565b50505050905090810190601f1680156106215780820380516001836020036101000a031916815260200191505b5086810384528b5181528b516020918201918d019080838360005b8381101561065457818101518382015260200161063c565b50505050905090810190601f1680156106815780820380516001836020036101000a031916815260200191505b5086810383528851815288516020918201918a019080838360005b838110156106b457818101518382015260200161069c565b50505050905090810190601f1680156106e15780820380516001836020036101000a031916815260200191505b50868103825287518152875160209182019189019080838360005b838110156107145781810151838201526020016106fc565b50505050905090810190601f1680156107415780820380516001836020036101000a031916815260200191505b509c5050505050505050505050505060405180910390f35b34801561076557600080fd5b5061076e61167b565b60408051918252519081900360200190f35b34801561078c57600080fd5b5061076e600480360360c08110156107a357600080fd5b8101906020810181356401000000008111156107be57600080fd5b8201836020820111156107d057600080fd5b803590602001918460018302840111640100000000831117156107f257600080fd5b91908080601f016020809104026020016040519081016040528093929190818152602001838380828437600092019190915250929594936020810193503591505064010000000081111561084557600080fd5b82018360208201111561085757600080fd5b8035906020019184600183028401116401000000008311171561087957600080fd5b91908080601f01602080910402602001604051908101604052809392919081815260200183838082843760009201919091525092959493602081019350359150506401000000008111156108cc57600080fd5b8201836020820111156108de57600080fd5b8035906020019184600183028401116401000000008311171561090057600080fd5b91908080601f016020809104026020016040519081016040528093929190818152602001838380828437600092019190915250929594936020810193503591505064010000000081111561095357600080fd5b82018360208201111561096557600080fd5b8035906020019184600183028401116401000000008311171561098757600080fd5b91908080601f01602080910402602001604051908101604052809392919081815260200183838082843760009201919091525092959493602081019350359150506401000000008111156109da57600080fd5b8201836020820111156109ec57600080fd5b80359060200191846001830284011164010000000083111715610a0e57600080fd5b91908080601f0160208091040260200160405190810160405280939291908181526020018383808284376000920191909152509295949360208101935035915050640100000000811115610a6157600080fd5b820183602082011115610a7357600080fd5b80359060200191846001830284011164010000000083111715610a9557600080fd5b91908080601f016020809104026020016040519081016040528093929190818152602001838380828437600092019190915250929550611681945050505050565b348015610ae257600080fd5b5061076e600480360360a0811015610af957600080fd5b810190602081018135640100000000811115610b1457600080fd5b820183602082011115610b2657600080fd5b80359060200191846001830284011164010000000083111715610b4857600080fd5b91908080601f0160208091040260200160405190810160405280939291908181526020018383808284376000920191909152509295949360208101935035915050640100000000811115610b9b57600080fd5b820183602082011115610bad57600080fd5b80359060200191846001830284011164010000000083111715610bcf57600080fd5b91908080601f0160208091040260200160405190810160405280939291908181526020018383808284376000920191909152509295949360208101935035915050640100000000811115610c2257600080fd5b820183602082011115610c3457600080fd5b80359060200191846001830284011164010000000083111715610c5657600080fd5b91908080601f0160208091040260200160405190810160405280939291908181526020018383808284376000920191909152509295949360208101935035915050640100000000811115610ca957600080fd5b820183602082011115610cbb57600080fd5b80359060200191846001830284011164010000000083111715610cdd57600080fd5b91908080601f0160208091040260200160405190810160405280939291908181526020018383808284376000920191909152509295949360208101935035915050640100000000811115610d3057600080fd5b820183602082011115610d4257600080fd5b80359060200191846001830284011164010000000083111715610d6457600080fd5b91908080601f0160208091040260200160405190810160405280939291908181526020018383808284376000920191909152509295506119f5945050505050565b348015610db157600080fd5b50610dcf60048036036020811015610dc857600080fd5b5035611cd8565b60405180806020018060200180602001858152602001848103845288818151815260200191508051906020019080838360005b83811015610e1a578181015183820152602001610e02565b50505050905090810190601f168015610e475780820380516001836020036101000a031916815260200191505b50848103835287518152875160209182019189019080838360005b83811015610e7a578181015183820152602001610e62565b50505050905090810190601f168015610ea75780820380516001836020036101000a031916815260200191505b50848103825286518152865160209182019188019080838360005b83811015610eda578181015183820152602001610ec2565b50505050905090810190601f168015610f075780820380516001836020036101000a031916815260200191505b5097505050505050505060405180910390f35b348015610f2657600080fd5b5061076e611eaf565b348015610f3b57600080fd5b5061076e611eb5565b600480546001019081905560009081526005602090815260409091208451610f6e92860190611ebb565b5060045460009081526005602090815260409091208351610f9792600190920191850190611ebb565b5060045460009081526005602090815260409091208251610fc092600290920191840190611ebb565b50506004546000818152600560205260409020600301555050565b600260208181526000928352604092839020805484516001821615610100026000190190911693909304601f810183900483028401830190945283835292839183018282801561106c5780601f106110415761010080835404028352916020019161106c565b820191906000526020600020905b81548152906001019060200180831161104f57829003601f168201915b505050505090806001018054600181600116156101000203166002900480601f01602080910402602001604051908101604052809291908181526020018280546001816001161561010002031660029004801561110a5780601f106110df5761010080835404028352916020019161110a565b820191906000526020600020905b8154815290600101906020018083116110ed57829003601f168201915b50505060028085018054604080516020601f600019610100600187161502019094169590950492830185900485028101850190915281815295969594509092509083018282801561119c5780601f106111715761010080835404028352916020019161119c565b820191906000526020600020905b81548152906001019060200180831161117f57829003601f168201915b5050505060038301805460408051602060026001851615610100026000190190941693909304601f810184900484028201840190925281815294959493509083018282801561122c5780601f106112015761010080835404028352916020019161122c565b820191906000526020600020905b81548152906001019060200180831161120f57829003601f168201915b505050505090806004015490806005015490806006018054600181600116156101000203166002900480601f0160208091040260200160405190810160405280929190818152602001828054600181600116156101000203166002900480156112d65780601f106112ab576101008083540402835291602001916112d6565b820191906000526020600020905b8154815290600101906020018083116112b957829003601f168201915b5050505060078301805460408051602060026001851615610100026000190190941693909304601f81018490048402820184019092528181529495949350908301828280156113665780601f1061133b57610100808354040283529160200191611366565b820191906000526020600020905b81548152906001019060200180831161134957829003601f168201915b5050505050905088565b60036020908152600091825260409182902080548351601f600260001961010060018616150201909316929092049182018490048402810184019094528084529092918391908301828280156114075780601f106113dc57610100808354040283529160200191611407565b820191906000526020600020905b8154815290600101906020018083116113ea57829003601f168201915b505050505090806001018054600181600116156101000203166002900480601f0160208091040260200160405190810160405280929190818152602001828054600181600116156101000203166002900480156114a55780601f1061147a576101008083540402835291602001916114a5565b820191906000526020600020905b81548152906001019060200180831161148857829003601f168201915b50505060028085018054604080516020601f60001961010060018716150201909416959095049283018590048502810185019091528181529596959450909250908301828280156115375780601f1061150c57610100808354040283529160200191611537565b820191906000526020600020905b81548152906001019060200180831161151a57829003601f168201915b505050505090806003015490806004015490806005018054600181600116156101000203166002900480601f0160208091040260200160405190810160405280929190818152602001828054600181600116156101000203166002900480156115e15780601f106115b6576101008083540402835291602001916115e1565b820191906000526020600020905b8154815290600101906020018083116115c457829003601f168201915b5050505060068301805460408051602060026001851615610100026000190190941693909304601f81018490048402820184019092528181529495949350908301828280156116715780601f1061164657610100808354040283529160200191611671565b820191906000526020600020905b81548152906001019060200180831161165457829003601f168201915b5050505050905087565b60005481565b60008054600101815582518451865188518a516040805191909201909201909201909201808352601f19601f82011683016020019091528891889188918891889160609180156116d8576020820181803883390190505b509050806000805b885181101561173c5788818151811015156116f757fe5b90602001015160f860020a900460f860020a02838381518110151561171857fe5b906020010190600160f860020a031916908160001a905350600191820191016116e0565b5060005b875181101561179c57878181518110151561175757fe5b90602001015160f860020a900460f860020a02838381518110151561177857fe5b906020010190600160f860020a031916908160001a90535060019182019101611740565b5060005b86518110156117fc5786818151811015156117b757fe5b90602001015160f860020a900460f860020a0283838151811015156117d857fe5b906020010190600160f860020a031916908160001a905350600191820191016117a0565b5060005b855181101561185c57858181518110151561181757fe5b90602001015160f860020a900460f860020a02838381518110151561183857fe5b906020010190600160f860020a031916908160001a90535060019182019101611800565b5060005b84518110156118bc57848181518110151561187757fe5b90602001015160f860020a900460f860020a02838381518110151561189857fe5b906020010190600160f860020a031916908160001a90535060019182019101611860565b506000828051906020012090508f600260008054815260200190815260200160002060000190805190602001906118f4929190611ebb565b508e60026000805481526020019081526020016000206001019080519060200190611920929190611ebb565b508d6002600080548152602001908152602001600020600201908051906020019061194c929190611ebb565b508c60026000805481526020019081526020016000206003019080519060200190611978929190611ebb565b5060008054808252600260209081526040808420600481019390935560059092018490558254835291208d516119b6926006909201918f0190611ebb565b506000805481526002602090815260409091208c516119dd926007909201918e0190611ebb565b50506000549f9e505050505050505050505050505050565b600180548101905581518351855187516040805191909201909201909201808252601f19601f82011682016020019092526000918791879187918791606091908015611a48576020820181803883390190505b509050806000805b8751811015611aac578781815181101515611a6757fe5b90602001015160f860020a900460f860020a028383815181101515611a8857fe5b906020010190600160f860020a031916908160001a90535060019182019101611a50565b5060005b8651811015611b0c578681815181101515611ac757fe5b90602001015160f860020a900460f860020a028383815181101515611ae857fe5b906020010190600160f860020a031916908160001a90535060019182019101611ab0565b5060005b8551811015611b6c578581815181101515611b2757fe5b90602001015160f860020a900460f860020a028383815181101515611b4857fe5b906020010190600160f860020a031916908160001a90535060019182019101611b10565b5060005b8451811015611bcc578481815181101515611b8757fe5b90602001015160f860020a900460f860020a028383815181101515611ba857fe5b906020010190600160f860020a031916908160001a90535060019182019101611b70565b506000828051906020012090508d6003600060015481526020019081526020016000206000019080519060200190611c05929190611ebb565b508c6003600060015481526020019081526020016000206001019080519060200190611c32929190611ebb565b5060015460009081526003602090815260409091208d51611c5b926002909201918f0190611ebb565b5060018054600081815260036020818152604080842092830194909455600490910185905592548152208c51611c99926005909201918e0190611ebb565b5060015460009081526003602090815260409091208b51611cc2926006909201918d0190611ebb565b50506001549d9c50505050505050505050505050565b60056020908152600091825260409182902080548351601f60026000196101006001861615020190931692909204918201849004840281018401909452808452909291839190830182828015611d6f5780601f10611d4457610100808354040283529160200191611d6f565b820191906000526020600020905b815481529060010190602001808311611d5257829003601f168201915b505050505090806001018054600181600116156101000203166002900480601f016020809104026020016040519081016040528092919081815260200182805460018160011615610100020316600290048015611e0d5780601f10611de257610100808354040283529160200191611e0d565b820191906000526020600020905b815481529060010190602001808311611df057829003601f168201915b50505060028085018054604080516020601f6000196101006001871615020190941695909504928301859004850281018501909152818152959695945090925090830182828015611e9f5780601f10611e7457610100808354040283529160200191611e9f565b820191906000526020600020905b815481529060010190602001808311611e8257829003601f168201915b5050505050908060030154905084565b60015481565b60045481565b828054600181600116156101000203166002900490600052602060002090601f016020900481019282601f10611efc57805160ff1916838001178555611f29565b82800160010185558215611f29579182015b82811115611f29578251825591602001919060010190611f0e565b50611f35929150611f39565b5090565b611f5391905b80821115611f355760008155600101611f3f565b9056fea165627a7a72305820472c6a469c949c73de66b78d67dd9049da5a25f342e880082a9319a8685be50d00293078434133356237643931353435384546353430614465363036386446653246",
  "source": "pragma solidity ^ 0.5.0;\r\ncontract charity {\r\n\r\n  uint public charity_count = 0;\r\n\r\n\r\n  uint public org_count = 0;\r\n\r\n  struct charity_structre {\r\n    string name;\r\n    string description;\r\n    string bankAccount;\r\n    string bankName;\r\n    uint id;\r\n    bytes32 hash;\r\n    string address_of_charity;\r\n    string  ether_coins;\r\n\r\n\r\n  }\r\n\r\n  struct personOrOrganisation_structure {\r\n\r\n    string name;\r\n    string bankAccount;\r\n    string bankName;\r\n    uint id;\r\n    bytes32 hash;\r\n    string address_of_organisation;\r\n    string ether_coins;\r\n\r\n\r\n\r\n  }\r\n\r\n  constructor() public {\r\n\r\n      createCharity(\"anand_charity\", \"welcome to anand's charity, this is a default charity as I created this web page\",\"bankacc\",\"bankname\",\"0xCA35b7d915458EF540aDe6068dFe2F44E8fa733c\",\"0000\");\r\n\r\n      createOrganisation(\"anand_organisation\",\"bank account\",\"bank name\",\"0xCA35b7d915458EF540aDe6068dFe2F44E8fa733c\",\"0000\");\r\n  }\r\n\r\n  mapping(uint => charity_structre) public charitys;\r\n\r\n\r\n  mapping(uint => personOrOrganisation_structure) public org;\r\n\r\n  struct transactions {\r\n\r\n    string address_of_charity;\r\n    string address_of_organisation;\r\n    string amount_sent;\r\n    uint id;\r\n\r\n  }\r\n\r\n  uint public transaction_count = 0;\r\n\r\n  mapping(uint => transactions) public transaction_dict;\r\n\r\n\r\n\r\n\r\n  function createCharity(string memory _name, string memory _description, string memory _bankacc, string memory _bankname, string memory _address, string memory _ether_coins) public returns(uint){\r\n\r\n      charity_count++;\r\n      //uint newEther_coins  =  uint(_ether_coins);\r\n      bytes memory name_byte = bytes(_name);\r\n      bytes memory description_byte = bytes(_description);\r\n      bytes memory bankacc_byte = bytes(_bankacc);\r\n      bytes memory bankname_byte = bytes(_bankname);\r\n      //string memory newStr = string(_address);\r\n      bytes memory address_byte = bytes(_address);\r\n      string memory lengthabc = new string(name_byte.length + description_byte.length + bankacc_byte.length + bankname_byte.length + address_byte.length);\r\n      bytes memory hash = bytes(lengthabc);\r\n      uint k = 0;\r\n      for(uint i =0;i < name_byte.length; i++){\r\n          hash[k] = name_byte[i];\r\n          k++;\r\n      }\r\n      for(uint i = 0;i < description_byte.length;i++){\r\n          hash[k] = description_byte[i];\r\n          k++;\r\n      }\r\n      for(uint i = 0;i < bankacc_byte.length;i++){\r\n          hash[k] = bankacc_byte[i];\r\n          k++;\r\n      }\r\n      for(uint i = 0;i < bankname_byte.length;i++){\r\n          hash[k] = bankname_byte[i];\r\n          k++;\r\n      }\r\n\r\n      for(uint i = 0;i < address_byte.length; i++ ){\r\n\r\n          hash[k] = address_byte[i];\r\n          k++;\r\n      }\r\n\r\n\r\n      bytes32 hash_address = keccak256(hash);\r\n      //charitys[charity_count] = charity_structre(_name,_description,_bankacc,_bankname,charity_count,hash_address,_address);\r\n\r\n      charitys[charity_count].name = _name;\r\n      charitys[charity_count].description = _description;\r\n      charitys[charity_count].bankAccount = _bankacc;\r\n      charitys[charity_count].bankName = _bankname;\r\n      charitys[charity_count].id = charity_count;\r\n      charitys[charity_count].hash = hash_address;\r\n      charitys[charity_count].address_of_charity = _address;\r\n      charitys[charity_count].ether_coins = _ether_coins;\r\n      //emit charityCreated(_name,_description,_bankacc,_bankname,charity_count,hash_address,_address);\r\n\r\n      return(charity_count);\r\n\r\n\r\n  }\r\n\r\n\r\n  function createOrganisation(string memory _name, string memory _bankacc, string memory _bankname, string memory _address, string memory _ether_coins) public returns(uint){\r\n\r\n    org_count ++;\r\n\r\n    bytes memory name_byte = bytes(_name);\r\n    bytes memory acc_byte = bytes(_bankacc);\r\n    bytes memory bankname_byte = bytes(_bankname);\r\n    bytes memory address_byte = bytes(_address);\r\n    string memory lengthabc = new string(name_byte.length + acc_byte.length + bankname_byte.length + address_byte.length );\r\n    bytes memory hash = bytes(lengthabc);\r\n\r\n    uint k = 0;\r\n\r\n    for(uint i = 0; i < name_byte.length;i++) {\r\n\r\n      hash[k] = name_byte[i];\r\n      k++;\r\n    }\r\n\r\n    for(uint i = 0; i < acc_byte.length; i++){\r\n\r\n      hash[k] = acc_byte[i];\r\n      k++;\r\n\r\n    }\r\n\r\n\r\n    for(uint i = 0; i < bankname_byte.length; i++) {\r\n\r\n      hash[k] = bankname_byte[i];\r\n      k++;\r\n    }\r\n\r\n\r\n    for(uint i = 0;i < address_byte.length; i++) {\r\n\r\n      hash[k] = address_byte[i];\r\n      k++;\r\n\r\n    }\r\n\r\n\r\n\r\n    bytes32 hash_address = keccak256(hash);\r\n\r\n    //org[org_count] = personOrOrganisation_structure(_name,_bankacc,_bankname,org_count,hash_address,_address);\r\n\r\n\r\n    org[org_count].name = _name;\r\n    org[org_count].bankAccount = _bankacc;\r\n    org[org_count].bankName = _bankname;\r\n    org[org_count].id = org_count;\r\n    org[org_count].hash = hash_address;\r\n    org[org_count].address_of_organisation = _address;\r\n    org[org_count].ether_coins = _ether_coins;\r\n\r\n    //emit organisationCreated(_name,_bankacc,_bankname,org_count,hash_address,_address);\r\n\r\n    return org_count;\r\n\r\n\r\n  }\r\n\r\n\r\n/*\r\n  function parseAddr(string memory _a) public returns (address _parsedAddress) {\r\n    bytes memory tmp = bytes(_a);\r\n    uint160 iaddr = 0;\r\n    uint160 b1;\r\n    uint160 b2;\r\n    for (uint i = 2; i < 2 + 2 * 20; i += 2) {\r\n        iaddr *= 256;\r\n        b1 = uint160(uint8(tmp[i]));\r\n        b2 = uint160(uint8(tmp[i + 1]));\r\n        if ((b1 >= 97) && (b1 <= 102)) {\r\n            b1 -= 87;\r\n        } else if ((b1 >= 65) && (b1 <= 70)) {\r\n            b1 -= 55;\r\n        } else if ((b1 >= 48) && (b1 <= 57)) {\r\n            b1 -= 48;\r\n        }\r\n        if ((b2 >= 97) && (b2 <= 102)) {\r\n            b2 -= 87;\r\n        } else if ((b2 >= 65) && (b2 <= 70)) {\r\n            b2 -= 55;\r\n        } else if ((b2 >= 48) && (b2 <= 57)) {\r\n            b2 -= 48;\r\n        }\r\n        iaddr += (b1 * 16 + b2);\r\n    }\r\n    return address(iaddr);\r\n}\r\n*/\r\n\r\n\r\n\r\n\r\nfunction createTransaction(string memory add_of_charity,string memory add_of_org,string memory amount) public {\r\n\r\n    transaction_count++;\r\n    transaction_dict[transaction_count].address_of_charity = add_of_charity;\r\n    transaction_dict[transaction_count].address_of_organisation = add_of_org;\r\n    transaction_dict[transaction_count].amount_sent = amount;\r\n    transaction_dict[transaction_count].id = transaction_count;\r\n\r\n}\r\n\r\n\r\n}\r\n\r\n/*\r\nevent charityCreated(\r\n\r\n  string name,\r\n  string description,\r\n  string bankacc,\r\n  string bankname,\r\n  uint id,\r\n  bytes32 hash,\r\n  address address_of_charity\r\n\r\n);\r\n\r\n\r\nevent organisationCreated(\r\n\r\n\r\n  string name,\r\n  string bankacc,\r\n  string bankname,\r\n  uint id,\r\n  bytes32 hash,\r\n  string address_of_organisation\r\n);\r\n*/\r\n",
  "sourcePath": "D:/blockchain_final/blockchain-project/contracts/charity.sol",
  "compiler": {
    "name": "solc",
    "version": "0.5.0+commit.1d4f565a.Emscripten.clang"
  },
  "schemaVersion": "3.0.2",
  "updatedAt": "2020-07-10T14:21:33.312Z",
  "devdoc": {
    "methods": {}
  },
  "userdoc": {
    "methods": {}
  }
}